:100000000C9434000C9451000C9451000C94510049
:100010000C9451000C9451000C9451000C9451001C
:100020000C9451000C9451000C9451000C9451000C
:100030000C9451000C9451000C9451000C945100FC
:100040000C9451000C9451000C9451000C945100EC
:100050000C9451000C9451000C9451000C945100DC
:100060000C9451000C94510011241FBECFEFD8E026
:10007000DEBFCDBF11E0A0E0B1E0E6ECFAE002C0E7
:1000800005900D92AA32B107D9F721E0AAE2B1E0BA
:1000900001C01D92A033B207E1F70E9499000C94B1
:1000A00061050C9400008A3041F4E0ECF0E09081AE
:1000B00095FFFDCF9DE09093C600E0ECF0E09081CD
:1000C00095FFFDCF8093C60080E090E0089588E121
:1000D0008093C10086E08093C20083E38093C400D4
:1000E0000895EAE7F0E0808180648083808184FF66
:1000F000FDCF8091780090917900089587B187B9FC
:1001000087E880937A0080E480937C000895219AA8
:10011000E0E8F0E0808182688083E1E8F0E08081BF
:100120008B61808383EC99E09093870080938600B5
:1001300008958FEF84B90E947E000E9487000E947C
:10014000670080E091E090932D0180932C010F2EA9
:10015000FEE0EF2EF1E0FF2EF02D0BE111E00F2E6F
:10016000F8E86F2E712CF02D0F2EF1E44F2E512C4C
:10017000F02D0E947100EC01BC0180E090E00E9433
:100180009B0120E030EC4FE754E40E94FA0020E0AD
:1001900030E84EE853E40E9429020E946C014B01B2
:1001A0005C01DF93CF93FF92EF920E9496029F92A1
:1001B0008F921F930F930E949602EDB7FEB7389669
:1001C0000FB6F894FEBF0FBEEDBFF2E48F16910498
:1001D00020F4F3015182408203C0F30191828082B6
:1001E000FFE728E381E0F15020408040E1F700C0C4
:1001F0000000BFCF0E940E010C94EF010E94E801A5
:1002000058F00E94E10140F029F45F3F29F00C947E
:10021000D80151110C9423020C94DE010E940002BB
:1002200068F39923B1F3552391F3951B550BBB2725
:10023000AA2762177307840738F09F5F5F4F220F6A
:10024000331F441FAA1FA9F335D00E2E3AF0E0E861
:1002500032D091505040E695001CCAF72BD0FE2FAB
:1002600029D0660F771F881FBB1F2617370748073F
:10027000AB07B0E809F0BB0B802DBF01FF279358F7
:100280005F4F3AF09E3F510578F00C94D8010C94E2
:1002900023025F3FE4F3983ED4F386957795679504
:1002A000B795F7959F5FC9F7880F911D969587952C
:1002B00097F90895E1E0660F771F881FBB1F62174B
:1002C00073078407BA0720F0621B730B840BBA0B09
:1002D000EE1F88F7E09508950E94080288F09F5766
:1002E00098F0B92F9927B751B0F0E1F0660F771F5A
:1002F000881F991F1AF0BA95C9F714C0B13091F050
:100300000E942202B1E008950C942202672F782FF8
:100310008827B85F39F0B93FCCF386957795679514
:10032000B395D9F73EF490958095709561957F4F80
:100330008F4F9F4F0895E89409C097FB3EF4909526
:100340008095709561957F4F8F4F9F4F9923A9F0AE
:10035000F92F96E9BB279395F6958795779567953D
:10036000B795F111F8CFFAF4BB0F11F460FF1BC081
:100370006F5F7F4F8F4F9F4F16C0882311F096E914
:1003800011C0772321F09EE8872F762F05C06623C2
:1003900071F096E8862F70E060E02AF09A95660F7B
:1003A000771F881FDAF7880F9695879597F9089534
:1003B00097F99F6780E870E060E008959FEF80EC18
:1003C000089500240A9416161706180609060895BB
:1003D00000240A9412161306140605060895092E21
:1003E0000394000C11F4882352F0BB0F40F4BF2B90
:1003F00011F460FF04C06F5F7F4F8F4F9F4F0895D0
:1004000057FD9058440F551F59F05F3F71F04795C5
:10041000880F97FB991F61F09F3F79F087950895AA
:10042000121613061406551FF2CF4695F1DF08C0C9
:10043000161617061806991FF1CF869571056105E6
:1004400008940895E894BB2766277727CB0197F98E
:1004500008950E943C020C94EF010E94E10138F0E3
:100460000E94E80120F0952311F00C94D8010C941F
:10047000DE0111240C9423020E94000270F3959F68
:10048000C1F3950F50E0551F629FF001729FBB278B
:10049000F00DB11D639FAA27F00DB11DAA1F649F27
:1004A0006627B00DA11D661F829F2227B00DA11DDA
:1004B000621F739FB00DA11D621F839FA00D611D60
:1004C000221F749F3327A00D611D231F849F600D81
:1004D000211D822F762F6A2F11249F5750409AF0AA
:1004E000F1F088234AF0EE0FFF1FBB1F661F771F36
:1004F000881F91505040A9F79E3F510580F00C9401
:10050000D8010C9423025F3FE4F3983ED4F3869520
:1005100077956795B795F795E7959F5FC1F7FE2BA0
:10052000880F911D9695879597F90895A0E0B0E002
:10053000ECE9F2E00C943A05AE014B5F5F4FFA0133
:1005400061917191AF0180912C0190912D010E94D8
:10055000AC02E2E00C945605ACE0B0E0E2EBF2E075
:100560000C942A057C016B018A01FC01178216821A
:10057000838181FFBDC1CE0101964C01F7019381BA
:10058000F60193FD859193FF81916F01882309F412
:10059000ABC1853239F493FD859193FF81916F0151
:1005A000853229F4B70190E00E949404E7CF512CE2
:1005B000312C20E02032A0F48B3269F030F480320C
:1005C00059F0833269F420612CC08D3239F08033C8
:1005D00039F4216026C02260246023C0286021C035
:1005E00027FD27C030ED380F3A3078F426FF06C0DB
:1005F000FAE05F9E300D1124532E13C08AE0389E1E
:10060000300D1124332E20620CC08E3221F426FDD1
:100610006BC1206406C08C3611F4206802C0883695
:1006200041F4F60193FD859193FF81916F01811152
:10063000C1CF982F9F7D9554933028F40C5F1F4FA6
:10064000FFE3F9830DC0833631F0833771F08335D2
:1006500009F05BC022C0F801808189830E5F1F4FC3
:1006600044244394512C540115C03801F2E06F0E1C
:10067000711CF801A080B18026FF03C0652D70E0D9
:1006800002C06FEF7FEFC5012C870E9489042C0107
:1006900083012C852F77222E17C03801F2E06F0ED0
:1006A000711CF801A080B18026FF03C0652D70E0A9
:1006B00002C06FEF7FEFC5012C870E947E042C01E2
:1006C0002C852068222E830123FC1BC0832D90E003
:1006D00048165906B0F4B70180E290E00E949404F5
:1006E0003A94F4CFF50127FC859127FE81915F01B3
:1006F000B70190E00E94940431103A94F1E04F1A4F
:1007000051084114510471F7E5C0843611F089365F
:1007100039F5F80127FF07C06081718182819381DB
:100720000C5F1F4F08C060817181072E000C880B81
:10073000990B0E5F1F4F2F76722E97FF09C0909571
:100740008095709561957F4F8F4F9F4F2068722ED7
:100750002AE030E0A4010E94CC04A82EA81844C0CE
:10076000853729F42F7EB22E2AE030E025C0F22F03
:10077000F97FBF2E8F36C1F018F4883579F0B4C0F8
:10078000803719F0883721F0AFC02F2F2061B22EAB
:10079000B4FE0DC08B2D8460B82E09C024FF0AC0A2
:1007A0009F2F9660B92E06C028E030E005C020E1FA
:1007B00030E002C020E132E0F801B7FE07C06081FE
:1007C0007181828193810C5F1F4F06C060817181AE
:1007D00080E090E00E5F1F4FA4010E94CC04A82E81
:1007E000A818FB2DFF777F2E76FE0BC0372D3E7F9E
:1007F000A51450F474FE0AC072FC08C0372D3E7E6A
:1008000005C0BA2C372D03C0BA2C01C0B52C34FF5B
:100810000DC0FE01EA0DF11D8081803311F4397E97
:1008200009C032FF06C0B394B39404C0832F867806
:1008300009F0B39433FD13C030FF06C05A2CB31433
:1008400018F4530C5B18B32CB31468F4B70180E2AE
:1008500090E03C870E949404B3943C85F5CFB31498
:1008600010F43B1801C0312C34FF12C0B70180E3F3
:1008700090E03C870E9494043C8532FF17C031FD14
:1008800003C088E790E002C088E590E0B7010CC0A3
:10089000832F867859F031FF02C08BE201C080E2DD
:1008A00037FD8DE2B70190E00E949404A51438F45E
:1008B000B70180E390E00E9494045A94F7CFAA9481
:1008C000F401EA0DF11D8081B70190E00E949404CB
:1008D000A110F5CF332009F451CEB70180E290E0AA
:1008E0000E9494043A94F6CFF7018681978102C062
:1008F0008FEF9FEF2C96E2E10C944605FC010590EA
:10090000615070400110D8F7809590958E0F9F1F11
:100910000895FC016150704001900110D8F7809556
:1009200090958E0F9F1F08950F931F93CF93DF9382
:10093000FB01238121FD03C08FEF9FEF28C022FF21
:1009400016C046815781248135814217530744F4EC
:10095000A081B1819D012F5F3F4F318320838C9314
:10096000268137812F5F3F4F3783268310C0EB01ED
:10097000092F182F0084F185E02D0995892BE1F6C8
:100980008E819F8101969F838E83812F902FDF918F
:10099000CF911F910F910895FA01AA27283051F1A4
:1009A000203181F1E8946F936E7F6E5F7F4F8F4FA0
:1009B0009F4FAF4FB1E03ED0B4E03CD0670F781FFF
:1009C000891F9A1FA11D680F791F8A1F911DA11DE4
:1009D0006A0F711D811D911DA11D20D009F468941D
:1009E0003F912AE0269F11243019305D3193DEF6C5
:1009F000CF010895462F4770405D4193B3E00FD07B
:100A0000C9F7F6CF462F4F70405D4A3318F0495D65
:100A100031FD4052419302D0A9F7EACFB4E0A69548
:100A20009795879577956795BA95C9F7009761056A
:100A3000710508959B01AC010A2E069457954795C0
:100A400037952795BA95C9F7620F731F841F951FB5
:100A5000A01D08952F923F924F925F926F927F92C6
:100A60008F929F92AF92BF92CF92DF92EF92FF92BE
:100A70000F931F93CF93DF93CDB7DEB7CA1BDB0B6A
:100A80000FB6F894DEBF0FBECDBF09942A8839880F
:100A900048885F846E847D848C849B84AA84B98416
:100AA000C884DF80EE80FD800C811B81AA81B98122
:100AB000CE0FD11D0FB6F894DEBF0FBECDBFED0136
:060AC0000895F894FFCF39
:100AC6000000000200000000530000000000616406
:100AD6006356616C203D2025750A00096E657756C0
:0A0AE600616C203D2025750A000018
:00000001FF
