S00F000044413254335F432E7372656335
S11300000C9434000C943E000C943E000C943E007E
S11300100C943E000C943E000C943E000C943E0064
S11300200C943E000C943E000C943E000C943E0054
S11300300C943E000C943E000C943E000C943E0044
S11300400C943E000C943E000C943E000C943E0034
S11300500C943E000C943E000C943E000C943E0024
S11300600C943E000C943E0011241FBECFEFD8E048
S1130070DEBFCDBF0E9440000C9481000C940000B0
S113008080E387B98FEF84B915B82FE74AE186E09A
S1130090215040408040E1F700C0000020E080E0B3
S11300A031E05DEC60E270E19FE7EAE146E0915007
S11300B0E0404040E1F700C0000083278130A1F711
S11300C02F5F25B9259F912D112496959695492F3B
S11300D0440F440F940F2913E7CF98B1962798B98A
S11300E0259F912D1124969596959695990F492FB4
S11300F0440F440F940F2913D7CF98B1972798B979
S1090100D3CFF894FFCFF9
S9030000FC
