:100000000C9434000C9446000C9446000C9446006A
:100010000C9448000C9446000C9446000C94460046
:100020000C9446000C9446000C9446000C94460038
:100030000C9446000C9446000C9446000C94460028
:100040000C9446000C9446000C9446000C94460018
:100050000C9446000C9446000C9446000C94460008
:100060000C9446000C94460011241FBECFEFD8E03C
:10007000DEBFCDBF21E0A0E0B1E001C01D92A13004
:10008000B207E1F70E9452000C9472000C94000039
:100090001F920F920FB60F9211240F900FBE0F9068
:1000A0001F90189581E387B98FEF84B98091000183
:1000B00085B9ECE6F0E0808181608083E8E6F0E0DD
:1000C000808182608083789491E02FE73AE186E036
:1000D000215030408040E1F700C0000088B18927FE
:0800E00088B9F3CFF894FFCFBB
:00000001FF
