:100000000C9434000C943E000C943E000C943E0082
:100010000C943E000C943E000C943E000C943E0068
:100020000C943E000C943E000C943E000C943E0058
:100030000C943E000C943E000C943E000C943E0048
:100040000C943E000C943E000C943E000C943E0038
:100050000C943E000C943E000C943E000C943E0028
:100060000C943E000C943E0011241FBECFEFD8E04C
:10007000DEBFCDBF0E9440000C945E000C940000D7
:100080008FEF84B915B82FE73AE146E021503040B0
:100090004040E1F700C0000020E080E091E05FE731
:1000A0003AE146E0515030404040E1F700C00000E6
:1000B00089278130A1F72F5F25B9F1CFF894FFCFC1
:00000001FF
