S00D000044413354312E73726563DA
S11300000C9434000C9449000C9449000C9449005D
S11300100C9449000C9449000C9449000C94490038
S11300200C9449000C9449000C9449000C94490028
S11300300C9449000C9449000C9449000C94490018
S11300400C9449000C9449000C9449000C94490008
S11300500C9449000C9449000C9449000C944900F8
S11300600C9449000C94490011241FBECFEFD8E032
S1130070DEBFCDBF11E0A0E0B1E0EEE1F1E002C0EF
S113008005900D92A832B107D9F70E945F000C9435
S11300908D000C9400001092C50083E38093C4008B
S11300A088E18093C10086E08093C2000895E0EC6B
S11300B0F0E0908195FFFDCF8093C6000895CF9323
S11300C0DF93CDB7DEB7A7970FB6F894DEBF0FBEA8
S11300D0CDBF87E2E0E0F1E0DE01119601900D92E0
S11300E08A95E1F70E944B007E0128E2E20EF11CA2
S11300F08E010F5F1F4FF80181918F010E945700FD
S11301000E151F05C1F7FFEF24E38CE0F1502040EA
S11101108040E1F700C00000EBCFF894FFCF71
S113011E4370453330313A204D6963726F636F6EAD
S113012E74726F6C6C65722053797374656D2044B0
S10B013E657369676E0A0D0088
S9030000FC
