:100000000C9434000C9446000C9446000C9446006A
:100010000C9446000C9446000C9446000C94460048
:100020000C9446000C9446000C9446000C94460038
:100030000C9446000C9446000C9446000C94460028
:100040000C9446000C9446000C9446000C94460018
:100050000C9446000C9446000C9446000C94460008
:100060000C9446000C94460011241FBECFEFD8E03C
:10007000DEBFCDBF21E0A0E0B1E001C01D92A03005
:10008000B207E1F70E947B000C948E000C940000F4
:1000900088E18093C10086E08093C20083E380936F
:1000A000C4000895E0ECF0E0908195FFFDCF8093CF
:1000B000C6000895ECE7F0E01082808180648083C0
:1000C000808180628083EAE7F0E0808187608083BE
:1000D00010927B008081806880838081806480832F
:1000E0000895EAE7F0E0808186FDFDCF80917800F9
:1000F0009091790008950E9448000E945A000E9441
:10010000710088E40E9452002FEF89E698E12150A7
:1001100080409040E1F700C00000F1CFF894FFCF9D
:00000001FF
