S00F000044413254315F632E7372656317
S11300000C9434000C943E000C943E000C943E007E
S11300100C943E000C943E000C943E000C943E0064
S11300200C943E000C943E000C943E000C943E0054
S11300300C943E000C943E000C943E000C943E0044
S11300400C943E000C943E000C943E000C943E0034
S11300500C943E000C943E000C943E000C943E0024
S11300600C943E000C943E0011241FBECFEFD8E048
S1130070DEBFCDBF0E9440000C9451000C940000E0
S113008081E087B988B991E02FE73AE186E0215011
S113009030408040E1F700C0000088B1892788B96A
S10900A0F3CFF894FFCF3A
S9030000FC
