S00D000044413454312E73726563D9
S11300000C9434000C943E000C943E000C943E007E
S11300100C943E000C943E000C943E000C943E0064
S11300200C943E000C943E000C943E000C943E0054
S11300300C943E000C943E000C943E000C943E0044
S11300400C943E000C943E000C943E000C943E0034
S11300500C943E000C943E000C943E000C943E0024
S11300600C943E000C943E0011241FBECFEFD8E048
S1130070DEBFCDBF0E9475000C94B1000C9400004B
S1130080E3EBF0E080838081861761F08FE097E2F4
S11300900197F1F700C000008081840F8083808184
S11300A08613F4CF089587BD87B5861761F08FE076
S11300B097E20197F1F700C0000087B5840F87BD70
S11300C087B58613F4CF089588BD88B5861761F087
S11300D08FE097E20197F1F700C0000088B5840F24
S11300E088BD88B58613F4CF089580E68AB988E080
S11300F084B981EA84BD82E085BD81E88093B00043
S113010084E08093B10089E187BD88BD8093B3000A
S113011041E065EE89E10E94640041E065EE89E119
S11301200E9453004FEF69E185EE0E94530041E0C5
S113013065EE89E10E94400041E065EE89E10E949C
S113014064004FEF69E185EE0E9453004FEF69E1CF
S113015085EE0E9464004FEF69E185EE0E94400045
S1090160D7CFF894FFCF95
S9030000FC
